S019000053696D706C652043616C63756C61746F722E7372656377
S11300000C942A000C9447000C9447000C9447006D
S11300100C9447000C9447000C9447000C94470040
S11300200C9447000C9447000C9447000C94470030
S11300300C9447000C9447000C9447000C94470020
S11300400C9447000C9447000C9447000C94470010
S11300500C94470011241FBECFE5D8E0DEBFCDBF0E
S113006010E0A0E6B0E0EEEDF2E102C005900D92E2
S1130070A837B107D9F710E0A8E7B0E001C01D9296
S1130080A838B107E1F70E9409040C946D090C9497
S11300900000843409F471C0853448F4823499F141
S11300A0833408F04DC0813409F083C00FC0823618
S11300B051F1833620F4813609F07BC007C08336C2
S11300C009F43EC0843609F074C057C0413069F465
S11300D02AB381E090E0AC0102C0440F551F6A9539
S11300E0E2F7BA01622B6ABB08952AB381E090E07B
S11300F0AC0102C0440F551F6A95E2F7BA0160953E
S113010062236ABB0895413069F427B381E090E02B
S1130110AC0102C0440F551F6A95E2F7BA01622B85
S113012067BB089527B381E090E0AC0102C0440F9F
S1130130551F6A95E2F7BA016095622367BB08957B
S1130140413069F424B381E090E0AC0102C0440F73
S1130150551F6A95E2F7BA01622B64BB089524B374
S113016081E090E0AC0102C0440F551F6A95E2F7AC
S1130170BA016095622364BB0895413069F421B3E8
S113018081E090E0AC0102C0440F551F6A95E2F78C
S1130190BA01622B61BB089521B381E090E0AC0108
S11301A002C0440F551F6A95E2F7BA0160956223B5
S11301B061BB0895843409F471C0853448F48234F1
S11301C099F1833408F04DC0813409F083C00FC025
S11301D0823651F1833620F4813609F07BC007C0A2
S11301E0833609F43EC0843609F074C057C04130E8
S11301F069F42BB381E090E0AC0102C0440F551FB9
S11302006A95E2F7BA01622B6BBB08952BB381E0C8
S113021090E0AC0102C0440F551F6A95E2F7BA01A1
S1130220609562236BBB0895413069F428B381E083
S113023090E0AC0102C0440F551F6A95E2F7BA0181
S1130240622B68BB089528B381E090E0AC0102C042
S1130250440F551F6A95E2F7BA016095622368BBA3
S11302600895413069F425B381E090E0AC0102C007
S1130270440F551F6A95E2F7BA01622B65BB0895D6
S113028025B381E090E0AC0102C0440F551F6A958C
S1130290E2F7BA016095622365BB0895413069F4C1
S11302A022B381E090E0AC0102C0440F551F6A956F
S11302B0E2F7BA01622B62BB089522B381E090E0B9
S11302C0AC0102C0440F551F6A95E2F7BA0160956C
S11302D0622362BB0895843409F43DC0853440F43C
S11302E08234F9F0833450F5813409F040C00CC0F5
S11302F08236B9F0833618F48136C9F505C08336E1
S1130300E9F08436A1F527C02BB381E090E0AC017D
S113031002C0440F551F6A95E2F7BA0162276BBB0E
S1130320089528B381E090E0AC0102C0440F551F4A
S11303306A95E2F7BA01622768BB089525B381E0A4
S113034090E0AC0102C0440F551F6A95E2F7BA0170
S1130350622765BB089522B381E090E0AC0102C03E
S1130360440F551F6A95E2F7BA01622762BB0895EC
S11303708434B1F1853438F48234E1F0833428F5DF
S11303808134C1F50CC08236A9F0833618F4813665
S113039089F505C08336C9F0843661F521C029B3D7
S11303A030E0C90102C0959587956A95E2F7982FC8
S11303B0917020C026B330E0C90102C0959587959D
S11303C06A95E2F7982F917015C023B330E0C90104
S11303D002C0959587956A95E2F7982F91700AC0A7
S11303E020B330E0C90102C0959587956A95E2F77C
S11303F0982F9170892F08958434D9F0853438F476
S1130400823499F0833498F48134A1F40CC0823698
S113041061F0833618F4813669F405C0833639F007
S1130420843641F406C06ABB089567BB089564BB73
S1130430089561BB08958434D9F0853438F4823446
S113044099F0833498F48134A1F40CC0823661F0BD
S1130450833618F4813669F405C0833639F084365E
S113046041F406C06BBB089568BB089565BB08954D
S113047062BB0895843409F1853438F48234A9F0D8
S11304808334B8F48134E1F40CC0823671F08336DD
S113049018F48136A9F405C0833659F0843681F402
S11304A00CC08BB380958BBB089588B3809588BBB3
S11304B0089585B3809585BB089582B3809582BBEA
S11304C008958434D9F0853438F4823499F083342F
S11304D098F48134A1F40CC0823661F0833618F4A8
S11304E0813669F405C0833639F0843641F406C098
S11304F099B305C096B303C093B301C090B3892FD9
S113050008950E94DA000895CF93DF93C82FD62F61
S1130510462F417060E00E94DA004D2F46954170ED
S11305208C2F61E00E94DA004D2F4695469541706C
S11305308C2F62E00E94DA00D695D695D6954D2F81
S113054041708C2F63E00E94DA00DF91CF9108950F
S1130550CF93DF93C82FD62F462F417064E00E94BB
S1130560DA004D2F469541708C2F65E00E94DA0029
S11305704D2F4695469541708C2F66E00E94DA0017
S1130580D695D695D6954D2F41708C2F67E00E9455
S1130590DA00DF91CF910895CF93C82F6FE00E94C6
S11305A0FC018C2F64E041E00E9481028C2F65E005
S11305B041E00E9481028C2F66E041E00E948102AA
S11305C08C2F67E041E00E948102CF910895EF9261
S11305D0FF920F931F93CF93DF93CDB7DEB760974E
S11305E00FB6F894DEBF0FBECDBF082FDE01119603
S11305F0E0E6F0E080E101900D928150E1F7EE2415
S1130600FF24802F6FE00E948402802F6E2D40E033
S11306100E94DA0010E0612F6C5F802F0E94B80105
S1130620882389F4F701EE0FFF1FEE0FFF1FE10F80
S1130630F11D81E090E08C0F9D1FE80FF91F808170
S11306408F3F21F00BC01F5F143029F70894E11C81
S1130650F11C94E0E916F104A1F68FEF60960FB651
S1130660F894DEBF0FBECDBFDF91CF911F910F91E4
S1130670FF90EF90089582E460E041E00E94DA0088
S11306808FE99FE00197F1F700C0000082E460E089
S113069040E00E94DA008FE99FE00197F1F700C083
S11306A000000895CF93C82F82E461E040E00E94E7
S11306B0DA006C2F62956F7081E40E94A8020E9498
S11306C03B0381E46C2F0E94A8020E943B038FEC41
S11306D097E00197F1F700C00000CF910895CF9300
S11306E0C82F82E461E041E00E94DA006C2F629539
S11306F06F7081E40E94A8020E943B0381E46C2F86
S11307000E94A8020E943B038FEC97E00197F1F747
S113071000C00000CF91089581E00E9452038FE44D
S113072096E40197F1F700C00000089582E00E946A
S113073052038FE496E40197F1F700C00000089596
S11307408FE799EAA3E081509040A040E1F700C010
S1130750000081E464E041E00E94490081E465E036
S113076041E00E94490081E466E041E00E944900C2
S113077081E467E041E00E94490082E460E041E0F6
S11307800E94490082E461E041E00E94490082E461
S113079062E041E00E94490082E462E040E00E949D
S11307A0DA000E94960388E20E9452038EE00E94BF
S11307B052030E948C0386E00E9452030895CF9353
S11307C0DF93EC018881882331F021960E946F0326
S11307D089918823D9F7DF91CF910895282F21504B
S11307E0223070F4613170F4662371F0813019F4B1
S11307F0962F91580AC0823041F4962F915405C027
S113080090E803C090E801C090E8892F0E94520349
S11308100895CF93DF93CDB7DEB728970FB6F8943A
S1130820DEBF0FBECDBF84E40E94CC020E94A003B1
S11308300F2EFBE74F2EF0E05F2EF02D0F2EFDEF75
S11308402F2EFFEF3F2EF02D240C351C31016201B9
S11308500894C11CD11C0F2EFAE08F2EF0E09F2EBD
S1130860F0E0AF2EF0E0BF2EF02DC1010596988781
S11308708F83EFEFD201EC93AAE7B0E0EC931197EA
S1130880EC93D101EC9310927E0010927F001092B1
S113089080001092810010927D0010927C001092D2
S11308A08300109282007301830184E40E94E702B2
S11308B089838F3FD1F3833419F40E948C0399C444
S11308C08B3249F08D3251F08A3259F08F32C1F4B3
S11308D01981812F08C01981812F05C01981812FA9
S11308E002C01981812F0E946F038FE79AE1A6E06D
S11308F081509040A040E1F700C000001A8394C4E6
S113090089810E946F0389818053D8018D938D0161
S11309108FE79AE1A6E081509040A040E1F700C043
S113092000000C151D0509F619817EC41D32D9F08D
S11309301A32C9F01F32B9F084E40E94E7028F3FF3
S1130940D9F3182F833419F40E948C0352C40E94E3
S11309506F038FE79AE1A6E081509040A040E1F751
S113096000C000001A83A8E7B0E02C912F3F21F1CA
S11309708091820090918300E9E7F0E06F817885AF
S1130980AC01440F551F880F991F880F991F880FBA
S1130990991F840F951F820F911D21912F3F29F4D8
S11309A0909383008093820007C0E617F70741F70E
S11309B090938300809382008FEFF2018083AAE7F3
S11309C0B0E08C93E9E7F0E08083D1018C93198245
S11309D001E084E40E94E7028B838F3FD1F3182F58
S11309E0833421F40E948C0309831DC08D3369F480
S11309F08DE30E946F038FE79AE1A6E08150904057
S1130A00A040E1F700C0000015C00E946F0310531E
S1130A10D7011C938FE79AE1A6E081509040A04053
S1130A20E1F700C000000894E11CF11CEC14FD0483
S1130A3081F61B819981992309F0D8C31D33A9F04C
S1130A4084E40E94E7028F3FD9F3833419F40E94AF
S1130A508C03CFC30E946F038FE79AE1A6E0815015
S1130A609040A040E1F700C00000A8E7B0E02C915E
S1130A702F3F21F180917C0090917D00E9E7F0E027
S1130A806F817885AC01440F551F880F991F880F1B
S1130A90991F880F991F840F951F820F911D219113
S1130AA02F3F29F490937D0080937C0007C0E617C4
S1130AB0F70741F790937D0080937C00BA81BB32A5
S1130AC069F0BC3220F4BA3209F062C031C0EA8164
S1130AD0ED32C9F0EF3209F05BC045C080917C0073
S1130AE090917D002091820030918300820F931FAA
S1130AF0A0E0B0E080937E0090937F00A0938000FC
S1130B00B093810045C08091820090918300209130
S1130B107C0030917D00821B930BA0E0B0E08093B9
S1130B207E0090937F00A0938000B093810030C03A
S1130B308091820090918300A0E0B0E020917C003D
S1130B4030917D0040E050E0BC01CD010E941809C5
S1130B50DC01CB0180937E0090937F00A093800002
S1130B60B093810015C080918200909183006091C0
S1130B707C0070917D000E943709CB01A0E0B0E0B9
S1130B8080937E0090937F00A0938000B0938100B7
S1130B9080917E0090917F00A0918000B0918100AF
S1130BA08B839C83AD83BE83809384009093850064
S1130BB0A0938600B09387000097A105B10509F4BE
S1130BC022C38C019D0180E0E82EC901B801A50172
S1130BD094010E944B0989019A01E39401151105BE
S1130BE02105310591F78E2D009384001093850023
S1130BF02093860030938700843009F46EC08530DA
S1130C0040F48230C1F0833098F5813009F0EEC2AF
S1130C100DC0863009F413C1863008F4ABC08730A8
S1130C2009F48AC1883009F0E1C227C28B81805D52
S1130C300E946F03E8C26B817C818D819E81A50136
S1130C4094010E944B09822F805D0E946F03609182
S1130C507E0070917F008091800090918100A501B9
S1130C6094010E944B09862F805D0E946F03CBC2C2
S1130C706B817C818D819E8124E630E040E050E0F0
S1130C800E944B09822F805D0E946F0360917E0059
S1130C9070917F008091800090918100A501940162
S1130CA00E944B09CA01B901A50194010E944B0994
S1130CB0862F805D0E946F0360917E0070917F009B
S1130CC08091800090918100A50194010E944B09BC
S1130CD0862F805D0E946F0396C26B817C818D811B
S1130CE09E8128EE33E040E050E00E944B09822FC1
S1130CF0805D0E946F0360917E0070917F008091FF
S1130D0080009091810024E630E040E050E00E94B1
S1130D104B09CA01B901A50194010E944B09862F10
S1130D20805D0E946F0360917E0070917F008091CE
S1130D30800090918100A50194010E944B09CA0191
S1130D40B901A50194010E944B09862F805D0E9480
S1130D506F0360917E0070917F008091800090917C
S1130D608100A50194010E944B09862F805D0E9499
S1130D706F0349C26B817C818D819E8120E137E2C2
S1130D8040E050E00E944B09822F805D0E946F0377
S1130D9060917E0070917F0080918000909181002D
S1130DA028EE33E040E050E00E944B09CA01B9014B
S1130DB0A50194010E944B09862F805D0E946F0358
S1130DC060917E0070917F008091800090918100FD
S1130DD024E630E040E050E00E944B09CA01B9012A
S1130DE0A50194010E944B09862F805D0E946F0328
S1130DF060917E0070917F008091800090918100CD
S1130E00A50194010E944B09CA01B901A5019401ED
S1130E100E944B09862F805D0E946F0360917E00C3
S1130E2070917F008091800090918100A5019401D0
S1130E300E944B09862F805D0E946F03E4C16B8181
S1130E407C818D819E8120EA36E841E050E00E9459
S1130E504B09822F805D0E946F0360917E00709128
S1130E607F00809180009091810020E137E240E092
S1130E7050E00E944B09CA01B901A50194010E94E6
S1130E804B09862F805D0E946F0360917E007091F4
S1130E907F00809180009091810028EE33E040E053
S1130EA050E00E944B09CA01B901A50194010E94B6
S1130EB04B09862F805D0E946F0360917E007091C4
S1130EC07F00809180009091810024E630E040E032
S1130ED050E00E944B09CA01B901A50194010E9486
S1130EE04B09862F805D0E946F0360917E00709194
S1130EF07F008091800090918100A50194010E945F
S1130F004B09CA01B901A50194010E944B09862F1E
S1130F10805D0E946F0360917E0070917F008091DC
S1130F20800090918100A50194010E944B09862FB5
S1130F30805D0E946F0367C182E061E00E94EE035E
S1130F4080E790E00E94DF0360917E0070917F0053
S1130F50809180009091810020E432E44FE050E0E1
S1130F600E944B09822F805D0E946F0360917E0076
S1130F7070917F00809180009091810020EA36E892
S1130F8041E050E00E944B09CA01B901A501940156
S1130F900E944B09862F805D0E946F0360917E0042
S1130FA070917F00809180009091810020E137E270
S1130FB040E050E00E944B09CA01B901A501940127
S1130FC00E944B09862F805D0E946F0360917E0012
S1130FD070917F00809180009091810028EE33E031
S1130FE040E050E00E944B09CA01B901A5019401F7
S1130FF00E944B09862F805D0E946F0360917E00E2
S113100070917F00809180009091810024E630E00F
S113101040E050E00E944B09CA01B901A5019401C6
S11310200E944B09862F805D0E946F0360917E00B1
S113103070917F008091800090918100A5019401BE
S11310400E944B09CA01B901A50194010E944B09F0
S1131050862F805D0E946F0360917E0070917F00F7
S11310608091800090918100A50194010E944B0918
S1131070862F805D0E946F03C6C082E061E00E94FB
S1131080EE0380E790E00E94DF0360917E007091A0
S11310907F00809180009091810020E836E948E942
S11310A050E00E944B09822F805D0E946F03609183
S11310B07E0070917F00809180009091810020E4F7
S11310C032E44FE050E00E944B09CA01B901A50186
S11310D094010E944B09862F805D0E946F036091EA
S11310E07E0070917F00809180009091810020EAC1
S11310F036E841E050E00E944B09CA01B901A5015C
S113110094010E944B09862F805D0E946F036091B9
S11311107E0070917F00809180009091810020E199
S113112037E240E050E00E944B09CA01B901A50131
S113113094010E944B09862F805D0E946F03609189
S11311407E0070917F00809180009091810028EE54
S113115033E040E050E00E944B09CA01B901A50107
S113116094010E944B09862F805D0E946F03609159
S11311707E0070917F00809180009091810024E630
S113118030E040E050E00E944B09CA01B901A501DA
S113119094010E944B09862F805D0E946F03609129
S11311A07E0070917F008091800090918100A50164
S11311B094010E944B09CA01B901A50194010E943E
S11311C04B09862F805D0E946F0360917E007091B1
S11311D07F008091800090918100A50194010E947C
S11311E04B09862F805D0E946F030DC09981913059
S11311F051F48FE79AE1A6E081509040A040E1F7D6
S113120000C0000036CB84E40E94E7028F3FD9F38C
S11312100E948C038FE79AE1A6E081509040A040A1
S1131220E1F700C0000025CB1B3209F07FCB9BCB3C
S1131230629FD001739FF001829FE00DF11D649FB6
S1131240E00DF11D929FF00D839FF00D749FF00D42
S1131250659FF00D9927729FB00DE11DF91F639FE3
S1131260B00DE11DF91FBD01CF0111240895AA1B82
S1131270BB1B51E107C0AA1FBB1FA617B70710F07D
S1131280A61BB70B881F991F5A95A9F780959095AF
S1131290BC01CD010895A1E21A2EAA1BBB1BFD01BE
S11312A00DC0AA1FBB1FEE1FFF1FA217B307E40741
S11312B0F50720F0A21BB30BE40BF50B661F771F99
S11312C0881F991F1A9469F7609570958095909579
S11112D09B01AC01BD01CF010895F894FFCF3E
S11312DE3738392F3435362A3132332D43303D2BBE
S10B12EE526573756C743D0038
S9030000FC
